:020000040000FA
:0400000004EF14F005
:10060000003F065B4F666D7D077F6F777C395E79B3
:10061000714170657274652061207465636C61203E
:100620003900436F6C6F717565206F2074656D7054
:100630006F007061726120696E6963696172004365
:100640006F6E6669726D61722D3600566F6C7461E3
:10065000723A282A2900312D506F74656E636961E2
:1006600000332D4465736C6967617200506F746567
:100670006E6369613A00204C6967616E646F005374
:1006800074616E6420427900322D54696D65720088
:1006900054696D65723A00000450800B0D6E045071
:1006A00004240F6E03AE57EF03F059EF03F05AEF37
:1006B00003F00F800F50D8B460EF03F062EF03F047
:1006C00077EF03F00F28D8A468EF03F06AEF03F088
:1006D00072EF03F0000E016E000E026E000E036E4C
:1006E000000E046E038E000E046E7FEF03F0000E0A
:1006F000016E000E026E000E036E000E046E0850B6
:10070000800B0E6E0D500E18D8B489EF03F08BEFEE
:1007100003F08CEF03F00D8C085008240E6E07AE2A
:1007200094EF03F096EF03F097EF03F00E800E5076
:10073000D8B49DEF03F09FEF03F0B4EF03F00E2861
:10074000D8A4A5EF03F0A7EF03F0AFEF03F0000E7E
:10075000056E000E066E000E076E000E086E078E08
:10076000000E086EBCEF03F0000E056E000E066E64
:10077000000E076E000E086E0F500E5CD8B0C3EF6F
:1007800003F0C5EF03F0ECEF03F00DACCAEF03F09C
:10079000CCEF03F0CEEF03F0800E0D1A0FC010F077
:1007A0000EC00FF010C00EF001C010F005C001F037
:1007B00010C005F002C010F006C002F010C006F034
:1007C00003C010F007C003F010C007F004C010F021
:1007D00008C004F010C008F0000E106E0F500EC0DC
:1007E00009F00A6A095E000E0A5A0ABE01EF04F017
:1007F0000A5009E11A0E095CD8A001EF04F003EFDA
:1008000004F03AEF04F00150021003100410D8A4D1
:100810000CEF04F00FEF04F0010E10EF04F0000EE7
:10082000106E000E016E000E026E000E036E000EC2
:10083000046E0EC00FF043EF04F010A022EF04F09E
:1008400024EF04F02AEF04F0D89010300109106E64
:100850002CEF04F0D890103201A031EF04F033EF08
:1008600004F034EF04F0108E043404320332023208
:1008700001320F2A0E500F5CD8A041EF04F043EF75
:1008800004F01DEF04F00DBC48EF04F04AEF04F053
:100890008AEF04F00F50D8A450EF04F052EF04F0A8
:1008A0005CEF04F0000E016E000E026E000E036E8F
:1008B000000E046EABEF05F0055001260650022233
:1008C000075003220850042204A069EF04F06BEFE4
:1008D00004F017EF05F010A070EF04F072EF04F0D1
:1008E00078EF04F0D89010300109106E7AEF04F020
:1008F000D890103201A07FEF04F081EF04F082EF76
:1009000004F0108E043404320332023201320F2A12
:1009100017EF05F00550015C0650025807500358C8
:100920000450800A096E0850800A0958D8B09BEF1D
:1009300004F09DEF04F0C8EF04F00150055C096E6F
:10094000025006580A6E035007580B6E04500858A0
:100950000C6EFF0E0924016EFF0E0A20026EFF0EC0
:100960000B20036EFF0E0C20046E800E0D1A106C0F
:100970001050D8A4BEEF04F0C0EF04F0D0EF04F0A4
:10098000010E0126000E022203220422D0EF04F001
:100990000550015E0650025A0750035A0850045A87
:1009A0000150021003100410D8A4D9EF04F0DBEFBB
:1009B00004F010EF05F01050D8A4E1EF04F0E3EFDD
:1009C00004F010EF05F0000E016E000E026E000E36
:1009D000036E000E046EABEF05F0D89001360236C0
:1009E0000336043610AEF7EF04F0F9EF04F0FAEF37
:1009F00004F0018010A0FFEF04F001EF05F005EF17
:100A000005F0D880103607EF05F0D89010360F505B
:100A1000D8B40DEF05F00FEF05F010EF05F00F065D
:100A200003AE15EF05F017EF05F0EDEF04F0000E43
:100A30000E6E10AE1EEF05F020EF05F038EF05F05A
:100A400010C009F07F0E0916D8B429EF05F02BEF7E
:100A500005F02FEF05F0010E0E6E38EF05F001A046
:100A600034EF05F036EF05F038EF05F02BEF05F029
:100A70000E50D8B43EEF05F040EF05F06BEF05F0F7
:100A8000010E0126000E02220322042204A04BEFD5
:100A900005F04DEF05F06BEF05F001C009F002C065
:100AA0000AF003C00BF004C00CF00C340C320B3213
:100AB0000A32093209C001F00AC002F00BC003F08B
:100AC0000CC004F00F28D8B468EF05F06AEF05F009
:100AD0006BEF05F00F2A0F28D8B471EF05F073EF14
:100AE00005F07BEF05F00F50D8A479EF05F07BEF10
:100AF00005F08DEF05F0000E016E000E026E000E87
:100B0000036E000E046E0F50D8A489EF05F08BEF32
:100B100005F08DEF05F0000E0D6E0FA092EF05F0C1
:100B200094EF05F097EF05F0038E98EF05F0039E24
:100B3000D8900F30046E0DAEA0EF05F0A2EF05F0D7
:100B4000A3EF05F0048E01C001F002C002F003C063
:100B500003F004C004F01200010ED9EC11F05CECBB
:100B600013F064EC14F0000E3A6E000E396E000EB5
:100B7000326E000E316E000E346E000E336E000EBB
:100B8000366E000E356E000E386E000E376E800E1B
:100B9000D9EC11F0900E096E060E0A6E87EC13F078
:100BA000C00ED9EC11F0220E096E060E0A6E87EC0B
:100BB00013F0900ED9EC11F0550E096E060E0A6E68
:100BC00087EC13F0D00ED9EC11F03F0E096E060E33
:100BD0000A6E87EC13F0EFEC0CF069EC14F039506E
:100BE000011809E13A500218D8B4F9EF05F0FBEF0B
:100BF00005F009EF07F069EC14F001C039F002C00C
:100C00003AF039A606EF06F008EF06F01CEF06F002
:100C1000314A322A32BE16EF06F0325009E1090E8F
:100C2000315CD8A016EF06F018EF06F01CEF06F0C6
:100C3000000E326E090E316E39A421EF06F023EF5B
:100C400006F037EF06F0334A342A34BE31EF06F0AF
:100C5000345009E1090E335CD8A031EF06F033EFD0
:100C600006F037EF06F0000E346E090E336E39A22F
:100C70003CEF06F03EEF06F052EF06F0354A362A1A
:100C800036BE4CEF06F0365009E1060E355CD8A0B2
:100C90004CEF06F04EEF06F052EF06F0000E366E07
:100CA000060E356E39A057EF06F059EF06F082EFC9
:100CB00006F0374A382A38BE67EF06F0385009E1A7
:100CC000090E375CD8A067EF06F069EF06F06DEF0C
:100CD00006F0000E386E090E376E38BE72EF06F061
:100CE00074EF06F082EF06F0060E35183610D8A421
:100CF0007CEF06F07EEF06F082EF06F0000E386E15
:100D0000000E376E39AE87EF06F089EF06F09DEFE3
:100D100006F03106D8A0320632BE99EF06F0325006
:100D200006E13104D8B097EF06F099EF06F09DEF99
:100D300006F0000E326E000E316E39ACA2EF06F0F6
:100D4000A4EF06F0B8EF06F03306D8A0340634BEA0
:100D5000B4EF06F0345006E13304D8B0B2EF06F039
:100D6000B4EF06F0B8EF06F0000E346E000E336EEE
:100D700039AABDEF06F0BFEF06F0D3EF06F0350657
:100D8000D8A0360636BECFEF06F0365006E1350461
:100D9000D8B0CDEF06F0CFEF06F0D3EF06F0000E9F
:100DA000366E000E356E39A8D8EF06F0DAEF06F091
:100DB000EEEF06F03706D8A0380638BEEAEF06F0A8
:100DC000385006E13704D8B0E8EF06F0EAEF06F055
:100DD000EEEF06F0000E386E000E376E3AA4F3EF19
:100DE00006F0F5EF06F009EF07F031C01BF032C056
:100DF0001CF033C01DF034C01EF035C01FF036C0EB
:100E000020F037C021F038C022F0A0EC07F09FEFAF
:100E100007F0000E196E31C00BF032C00CF0000E5E
:100E20000E6E0A0E0D6E81EC11F00B5030EC13F0CB
:100E3000010E196E33C00BF034C00CF0000E0E6EB4
:100E40000A0E0D6E81EC11F00B5030EC13F0020E17
:100E5000196E35C00BF036C00CF0000E0E6E0A0E87
:100E60000D6E81EC11F00B5030EC13F0030E196E87
:100E700037C00BF038C00CF0000E0E6E0A0E0D6E6F
:100E800081EC11F00B5030EC13F0000E2D6E000EC3
:100E90002E6E000E2F6E000E306E2DC001F02EC093
:100EA00002F02FC003F030C004F0000E056E000EFB
:100EB000066EA00E076E400E086E5DEC0FF0D8A017
:100EC00064EF07F066EF07F068EF07F09BEF07F0BD
:100ED0002DC001F02EC002F02FC003F030C004F08E
:100EE000000E056E000E066E800E076E3F0E086E39
:100EF0004CEC03F001C02DF002C02EF003C02FF027
:100F000004C030F02DC001F02EC002F02FC003F05D
:100F100030C004F0000E056E000E066EA00E076EC7
:100F2000400E086E5DEC0FF0D8A099EF07F09BEF34
:100F300007F068EF07F0ACEC0DF0C7EF05F012001A
:100F40001BC001F01CC002F0020E046E580E036EAE
:100F50001FEC14F001C023F002C024F01DC001F00A
:100F60001EC002F0000E046E3C0E036E1FEC14F067
:100F700001502326025024221FC001F020C002F09D
:100F8000000E046E0A0E036E1FEC14F001502326AF
:100F900002502422215023262250242223C029F04B
:100FA00024C02AF0000E2ABEFF0E2B6E2C6E6EECB3
:100FB00014F0000E256E000E266E000E276E000E39
:100FC000286E25C001F026C002F027C003F028C01B
:100FD00004F0000E056E400E066E1C0E076E450EE8
:100FE000086E5DEC0FF0D8A0F8EF07F0FAEF07F00D
:100FF000FCEF07F04EEF08F025C001F026C002F02C
:1010000027C003F028C004F0DAEC0EF001C00BF0AA
:1010100002C00CF0000E0E6E070E0D6E81EC11F08A
:101020000B500C10D8A417EF08F019EF08F01BEFC5
:1010300008F0ACEC0DF025C001F026C002F027C08E
:1010400003F028C004F0000E056E000E066E800E40
:10105000076E3F0E086E4CEC03F001C025F002C095
:1010600026F003C027F004C028F025C001F026C0F8
:1010700002F027C003F028C004F0000E056E400EF9
:10108000066E1C0E076E450E086E5DEC0FF0D8A0C4
:101090004CEF08F04EEF08F0FCEF07F0FF0E2926AA
:1010A000FF0E2A22FF0E2B22FF0E2C22000E196E9D
:1010B000580E056E020E066E000E076E000E086ECC
:1010C00029C001F02AC002F02BC003F02CC004F0AC
:1010D00054EC0EF001C00FF002C010F003C011F08C
:1010E00004C012F00A0E136E000E146E000E156E80
:1010F000000E166EDFEC0FF00F5030EC13F0010E07
:10110000196E3C0E056E000E066E000E076E000E88
:10111000086E29C001F02AC002F02BC003F02CC0D9
:1011200004F054EC0EF001C00FF002C010F003C048
:1011300011F004C012F00A0E136E000E146E000EB1
:10114000156E000E166EDFEC0FF00F5030EC13F042
:10115000020E196E0A0E056E000E066E000E076E68
:10116000000E086E29C001F02AC002F02BC003F067
:101170002CC004F054EC0EF001C00FF002C010F0CF
:1011800003C011F004C012F0060E136E000E146EB0
:10119000000E156E000E166EDFEC0FF00F5030ECE7
:1011A00013F0030E196E29C00FF02AC010F02BC0E7
:1011B00011F02CC012F00A0E136E000E146E000E09
:1011C000156E000E166EDFEC0FF00F5030EC13F0C2
:1011D00029502A102B102C10D8A4F1EF08F0F3EFAF
:1011E00008F0D9EF07F0000EC8EC12F09482020E5E
:1011F000026E580E016EFEEC12F09492120002BEC6
:101200000DEF09F0025007E1080E015CD8B00BEFBA
:1012100009F00DEF09F037EF09F003500410D8B4CE
:1012200014EF09F016EF09F026EF09F001C005F000
:10123000010E066E052A1FEF09F0D8900636052E1E
:101240001DEF09F00650921225EF0AF001C005F0DB
:10125000010E066E052A2FEF09F0D8900636052EEE
:101260002DEF09F00650FF0A921625EF0AF002BE94
:1012700045EF09F0025007E1100E015CD8B043EFD2
:1012800009F045EF09F073EF09F003500410D8B4EA
:101290004CEF09F04EEF09F060EF09F001C005F0E6
:1012A000F80E0526010E066E052A59EF09F0D890B2
:1012B0000636052E57EF09F00650931225EF0AF077
:1012C00001C005F0F80E0526010E066E052A6BEF2B
:1012D00009F0D8900636052E69EF09F00650FF0A8E
:1012E000931625EF0AF002BE81EF09F0025007E1E4
:1012F000180E015CD8B07FEF09F081EF09F0AFEF75
:1013000009F003500410D8B488EF09F08AEF09F00F
:101310009CEF09F001C005F0F00E0526010E066EE7
:10132000052A95EF09F0D8900636052E93EF09F0BF
:101330000650941225EF0AF001C005F0F00E0526C4
:10134000010E066E052AA7EF09F0D8900636052E85
:10135000A5EF09F00650FF0A941625EF0AF002BE29
:10136000BDEF09F0025007E1200E015CD8B0BBEFE1
:1013700009F0BDEF09F0EBEF09F003500410D8B409
:10138000C4EF09F0C6EF09F0D8EF09F001C005F08D
:10139000E80E0526010E066E052AD1EF09F0D89059
:1013A0000636052ECFEF09F00650951225EF0AF00C
:1013B00001C005F0E80E0526010E066E052AE3EFD2
:1013C00009F0D8900636052EE1EF09F00650FF0A25
:1013D000951625EF0AF002BEF9EF09F0025007E179
:1013E000280E015CD8B0F7EF09F0F9EF09F025EF0E
:1013F0000AF003500410D8B400EF0AF002EF0AF02C
:1014000014EF0AF001C005F0E00E0526010E066E8D
:10141000052A0DEF0AF0D8900636052E0BEF0AF0DC
:101420000650961225EF0AF001C005F0E00E0526E1
:10143000010E066E052A1FEF0AF0D8900636052E1B
:101440001DEF0AF00650FF0A9616120002BE34EF96
:101450000AF0025007E1080E015CD8B032EF0AF042
:1014600034EF0AF05EEF0AF003500410D8B43BEFFB
:101470000AF03DEF0AF04DEF0AF001C005F0010E51
:10148000066E052A46EF0AF0D8900636052E44EF80
:101490000AF0065080124CEF0BF001C005F0010E6F
:1014A000066E052A56EF0AF0D8900636052E54EF40
:1014B0000AF00650FF0A80164CEF0BF002BE6CEFEC
:1014C0000AF0025007E1100E015CD8B06AEF0AF092
:1014D0006CEF0AF09AEF0AF0F80E0126FF0E0222D6
:1014E00003500410D8B477EF0AF079EF0AF089EFCF
:1014F0000AF001C005F0010E066E052A82EF0AF01F
:10150000D8900636052E80EF0AF0065081124CEF77
:101510000BF001C005F0010E066E052A92EF0AF0ED
:10152000D8900636052E90EF0AF00650FF0A811675
:101530004CEF0BF002BEA8EF0AF0025007E1180EC4
:10154000015CD8B0A6EF0AF0A8EF0AF0D6EF0AF0D7
:10155000F00E0126FF0E022203500410D8B4B3EFA0
:101560000AF0B5EF0AF0C5EF0AF001C005F0010E70
:10157000066E052ABEEF0AF0D8900636052EBCEF9F
:101580000AF0065082124CEF0BF001C005F0010E7C
:10159000066E052ACEEF0AF0D8900636052ECCEF5F
:1015A0000AF00650FF0A82164CEF0BF002BEE4EF81
:1015B0000AF0025007E1200E015CD8B0E2EF0AF019
:1015C000E4EF0AF012EF0BF0E80E0126FF0E022204
:1015D00003500410D8B4EFEF0AF0F1EF0AF001EF76
:1015E0000BF001C005F0010E066E052AFAEF0AF0B5
:1015F000D8900636052EF8EF0AF0065083124CEF0D
:101600000BF001C005F0010E066E052A0AEF0BF083
:10161000D8900636052E08EF0BF00650FF0A831609
:101620004CEF0BF002BE20EF0BF0025007E1280E4A
:10163000015CD8B01EEF0BF020EF0BF04CEF0BF07D
:10164000E00E0126FF0E022203500410D8B42BEF47
:101650000BF02DEF0BF03DEF0BF001C005F0010E8C
:10166000066E052A36EF0BF0D8900636052E34EFBD
:101670000BF0065084124CEF0BF001C005F0010E88
:10168000066E052A46EF0BF0D8900636052E44EF7D
:101690000BF00650FF0A8416120020EEB0F010EE98
:1016A00015F01F0EDBCFE3FFE806FCE2010ED9ECDC
:1016B00011F0000E3A6E000E396E800ED9EC11F06A
:1016C0006C0E096E060E0A6E87EC13F0C00ED9EC94
:1016D00011F0D00ED9EC11F04B0E096E060E0A6E09
:1016E00087EC13F0EFEC0CF069EC14F037500118B4
:1016F00009E138500218D8B480EF0BF082EF0BF0FC
:10170000E1EF0BF069EC14F001C037F002C038F0E3
:1017100037AA8DEF0BF08FEF0BF0A8EF0BF00A0E4E
:101720003926000E3A223ABE9FEF0BF03A5009E1FB
:10173000640E395CD8A09FEF0BF0A1EF0BF0A5EF82
:101740000BF0000E3A6E630E396E3950C8EC12F091
:1017500037A8ADEF0BF0AFEF0BF0D5EF0BF0F60EB7
:101760003926FF0E3A223ABEC0EF0BF03A5006E19E
:101770003904D8B0BEEF0BF0C0EF0BF0C4EF0BF0A4
:10178000000E3A6E000E396E590E39183A10D8A470
:10179000CCEF0BF0CEEF0BF0D2EF0BF0000E3A6E69
:1017A0005A0E396E3950C8EC12F037A0DAEF0BF050
:1017B000DCEF0BF0E1EF0BF0010ED9EC11F01EEFB6
:1017C0000CF0DB0ED9EC11F039C011F03AC012F078
:1017D0008EEC12F0400ED9EC11F0000E366E000EB9
:1017E000356E150E3524D96E000E3620DA6EDF50B8
:1017F000B2EC13F0354A362A36BE08EF0CF03650FC
:1018000009E1200E355CD8A008EF0CF00AEF0CF0CF
:10181000F1EF0BF09E0ED9EC11F0000EB2EC13F0CC
:10182000010EB2EC13F0DE0ED9EC11F0020EB2ECA8
:1018300013F0030EB2EC13F05DEF0BF0120020EE8C
:1018400080F010EE11F02F0EDBCFE3FFE806FCE294
:1018500018EC12F0400ED9EC11F0000E466E000E9E
:10186000456E110E4524D96E000E4620DA6EDF500B
:10187000B2EC13F0454A462A46BE48EF0CF04650FB
:1018800009E1300E455CD8A048EF0CF04AEF0CF0AF
:1018900031EF0CF0010E826E030E026EE80E016E47
:1018A000FEEC12F0000E826E010E846E030E026ECC
:1018B000E80E016EFEEC12F0000E846E000E466E15
:1018C000000E456E010ED9EC11F04550800FD9EC99
:1018D00011F0000EB2EC13F0010EB2EC13F0020E98
:1018E000B2EC13F04550C00FD9EC11F0030EB2EC7E
:1018F00013F0040EB2EC13F0050EB2EC13F0760EFA
:10190000096E060E0A6E87EC13F0000E416E000E93
:10191000426E000E436E000E446E41C001F042C0A4
:1019200002F043C003F044C004F0000E056E000E48
:10193000066E2F0E076E440E086E5DEC0FF0D8A0F9
:10194000A4EF0CF0A6EF0CF0A8EF0CF0DBEF0CF01E
:1019500041C001F042C002F043C003F044C004F0B3
:10196000000E056E000E066E800E076E3F0E086EAE
:101970004CEC03F001C041F002C042F003C043F060
:1019800004C044F041C001F042C002F043C003F083
:1019900044C004F0000E056E000E066E2F0E076E9A
:1019A000440E086E5DEC0FF0D8A0D9EF0CF0DBEF21
:1019B0000CF0A8EF0CF0454A462A46BEE9EF0CF0C1
:1019C000465009E1160E455CD8A0E9EF0CF0EBEFAC
:1019D0000CF062EF0CF0010ED9EC11F0120083CF85
:1019E00006F00F0E9512000E0A6EF80E93160AC03E
:1019F00001F0010E026E012A00EF0DF0D8900236C0
:101A0000012EFEEF0CF002509312070E81120AC055
:101A100001F0010E026E012A10EF0DF0D89002368F
:101A2000012E0EEF0DF00250FF0A8116000E086E17
:101A3000000E076E074A082A08BE28EF0DF008506E
:101A400009E10A0E075CD8A028EF0DF02AEF0DF08F
:101A50001AEF0DF0000E096E09C001F0010E026EC2
:101A6000012A35EF0DF0D8900236012E33EF0DF03C
:101A7000025083140009D8A440EF0DF042EF0DF09E
:101A80005AEF0DF00A50040DF3500924016E010EB7
:101A9000026E000E036E012A51EF0DF0D89002364F
:101AA0000336012E4EEF0DF0025061120350621208
:101AB00074EF0DF00A50040DF3500924016E010E6D
:101AC000026E000E036E012A69EF0DF0D890023607
:101AD0000336012E66EF0DF0021C046E031C056E2A
:101AE0000450611605506216092A030E09647BEF43
:101AF0000DF07DEF0DF02CEF0DF00A2A020E0A64B6
:101B000084EF0DF086EF0DF0F5EF0CF061505F18EB
:101B100007E162506018D8A490EF0DF092EF0DF03D
:101B200095EF0DF06A069BEF0DF00A0E6A6E61C02C
:101B30005FF062C060F06A50D8A4A1EF0DF0A3EF8F
:101B40000DF0A7EF0DF05FC063F060C064F006C059
:101B500083FF000E956E1200000E956E000E026E51
:101B6000020E016E000E046E000E036E26EC0AF0EB
:101B7000000E026E030E016E000E046E000E036E68
:101B800026EC0AF0000E026E040E016E000E046ECA
:101B9000000E036E26EC0AF0000E026E050E016EBA
:101BA000000E046E000E036E26EC0AF0000E836E2B
:101BB00036EF0EF0010E6824F66EF76A060EF72275
:101BC0000800F5CF83FF000E026E020E016E000EBC
:101BD000046E010E036E26EC0AF0010E696E53EFDF
:101BE0000EF0010E6724F66EF76A060EF722080063
:101BF000F5CF83FF000E026E030E016E000E046E21
:101C0000010E036E26EC0AF0020E696E53EF0EF021
:101C1000010E6624F66EF76A060EF7220800F5CF6D
:101C200083FF000E026E040E016E000E046E010EA4
:101C3000036E26EC0AF0030E696E53EF0EF0010EF0
:101C40006524F66EF76A060EF7220800F5CF83FFCB
:101C5000000E026E050E016E000E046E010E036E84
:101C600026EC0AF0000E696E53EF0EF06950076E15
:101C7000086A0850000AD8B440EF0EF032EF0EF0B8
:101C80000750000AD8B4DAEF0DF0010AD8B4F1EF2A
:101C90000DF0030AD8B408EF0EF0010AD8B41FEF14
:101CA0000EF032EF0EF01200000E0A6E08BE5DEF6D
:101CB0000EF05BEF0EF067EF0EF0081E071E061E1B
:101CC000056C000E062207220822010E0A6E04BED1
:101CD0006EEF0EF06CEF0EF078EF0EF0041E031EA8
:101CE000021E016C000E022203220422010E0A1AB7
:101CF000000E0B6E000E0C6E000E0D6E000E0E6EC2
:101D00000550061007100810D8B489EF0EF08BEFBD
:101D10000EF0C1EF0EF0010E096E95EF0EF0D890A7
:101D20000536063607360836092A08AE9AEF0EF051
:101D30009CEF0EF08FEF0EF0D8900B360C360D3670
:101D40000E360550015C06500258075003580850E3
:101D50000458D8A0AEEF0EF0B0EF0EF0B9EF0EF0D1
:101D60000550015E0650025A0750035A0850045AA3
:101D70000B80D8900832073206320532092E9CEFCC
:101D80000EF00A50D8B4C7EF0EF0C9EF0EF0D1EF45
:101D90000EF00E1E0D1E0C1E0B6C000E0C220D22E2
:101DA0000E220BC001F00CC002F00DC003F00EC0FB
:101DB00004F01200033404340A6E0A50D8A4E3EF8E
:101DC0000EF0E5EF0EF0EFEF0EF0000E016E000EDC
:101DD000026E000E036E000E046E5CEF0FF001C089
:101DE00005F002C006F003C007F004C008F0200EA2
:101DF000FFEF0EF0D8900832073206320532E82E97
:101E0000FAEF0EF00550096E038EFF0E0116FF0E5D
:101E10000216FF0E0316000E0416960E0A5E0ABE88
:101E200016EF0FF014EF0FF02CEF0FF00A50800AAE
:101E3000970FD8B01EEF0FF020EF0FF022EF0FF04A
:101E4000E5EF0EF0D89004320332023201320A3E3E
:101E500022EF0FF044EF0FF01F0E0A6432EF0FF085
:101E600034EF0FF03CEF0FF0E5EF0EF0D8900136B5
:101E70000236033604360A060A50D8A442EF0FF0A1
:101E800044EF0FF036EF0FF00950D8B44AEF0FF0DF
:101E90004CEF0FF054EF0FF0041E031E021E016CF6
:101EA000000E02220322042201C001F002C002F04F
:101EB00003C003F004C004F01200000E0114096E08
:101EC000000E02140A6E800E03140B6E7F0E0414B3
:101ED0000C6E09500A100B100C10D8A472EF0FF002
:101EE00074EF0FF07CEF0FF0000E016E000E026E2B
:101EF000000E036E000E046E000E0514096E000E37
:101F000006140A6E800E07140B6E7F0E08140C6EFA
:101F100009500A100B100C10D8A491EF0FF093EF9A
:101F20000FF09BEF0FF0000E056E000E066E000E18
:101F3000076E000E086E04AEA0EF0FF0A2EF0FF0D8
:101F4000ABEF0FF0016C021ED8B0022A031ED8B00E
:101F5000032A800E045608AEB0EF0FF0B2EF0FF078
:101F6000BBEF0FF0056C061ED8B0062A071ED8B0CE
:101F7000072A800E0856000E011A000E021A000EE3
:101F8000031A800E041A000E051A000E061A000E1F
:101F9000071A800E081A0550015C065002580750B7
:101FA000035808500458D8B0D8EF0FF0DAEF0FF00C
:101FB000DDEF0FF0D890DEEF0FF0D8801200000EAA
:101FC000186E12BEE8EF0FF0E6EF0FF0F2EF0FF031
:101FD000121E111E101E0F6C000E10221122122252
:101FE000010E186E16BEF9EF0FF0F7EF0FF001EFCC
:101FF00010F0161E151E141E136C000E142215224E
:1020000016221350141015101610D8B40AEF10F041
:102010000CEF10F03CEF10F0010E176E16EF10F001
:10202000D8901336143615361636172A16AE1BEF0F
:1020300010F01DEF10F010EF10F013500F5C145063
:1020400010581550115816501258D8A02AEF10F0F9
:102050002CEF10F034EF10F013500F5E1450105AA4
:102060001550115A1650125AD89016321532143291
:102070001332172E1DEF10F01850D8B442EF10F0A5
:1020800044EF10F04CEF10F0121E111E101E0F6CDA
:10209000000E1022112212220FC00FF010C010F0FB
:1020A00011C011F012C012F012005CEC13F0000E1F
:1020B000196E000E30EC13F0010E196E000E30ECAC
:1020C00013F0020E196E000E30EC13F0030E196EB1
:1020D000000E30EC13F0ACEC0DF0800ED9EC11F0EA
:1020E000560E096E060E0A6E87EC13F0C00ED9EC80
:1020F00011F0880E096E060E0A6E87EC13F0900E32
:10210000D9EC11F0610E096E060E0A6E87EC13F021
:10211000EFEC0CF069EC14F001500210D8B493EF1E
:1021200010F095EF10F055EF10F069EC14F001C0CD
:1021300049F002C04AF049A6A0EF10F0A2EF10F05B
:10214000A4EF10F04DEC0BF049AEA9EF10F0ABEF9F
:1021500010F0AFEF10F0ACEC05F020EC11F04AA657
:10216000B4EF10F0B6EF10F055EF10F0000EC8EC21
:1021700012F020EC11F055EF10F01200000E066E78
:1021800004BEC7EF10F0C5EF10F0CDEF10F0036CF8
:10219000041ED8B0042A010E066E02BED4EF10F061
:1021A000D2EF10F0DAEF10F0016C021ED8B0022A64
:1021B000010E061A000E086E000E076E0350041082
:1021C000D8B4E5EF10F0E7EF10F00FEF11F0010ECB
:1021D000056EEFEF10F0D89003360436052A04AEF2
:1021E000F4EF10F0F6EF10F0EBEF10F0D8900736A8
:1021F00008360350015C04500258D8A002EF11F0D9
:1022000004EF11F009EF11F00350015E0450025A7F
:102210000780D89004320332052EF6EF10F00650F6
:10222000D8B415EF11F017EF11F01BEF11F0076C98
:10223000081ED8B0082A07C001F008C002F012003A
:1022400064EC14F018EC12F0000E486E000E476EAD
:10225000840ED9EC11F07F0E096E060E0A6E87EC23
:1022600013F0C00ED9EC11F0110E096E060E0A6EB5
:1022700087EC13F0920ED9EC11F0320E096E060EB7
:102280000A6E87EC13F05CEC13F0000E196E000E72
:1022900030EC13F0010E196E000E30EC13F0020E4C
:1022A000196E000E30EC13F0030E196E000E30ECB8
:1022B00013F0ACEC0DF0EFEC0CF069EC14F04750BF
:1022C000011809E148500218D8B469EF11F06BEF1A
:1022D00011F043EF11F069EC14F001C047F002C0B7
:1022E00048F048A276EF11F078EF11F043EF11F0CB
:1022F000010ED9EC11F0400ED9EC11F01FEC0CF0EE
:102300001200000E106E0CBE8AEF11F088EF11F073
:1023100090EF11F00B6C0C1ED8B00C2A010E106E51
:102320000EBE97EF11F095EF11F09BEF11F00D6CD1
:102330000E1ED8B00E2A0D500E10D8B4A2EF11F018
:10234000A4EF11F0C8EF11F0010E0F6EACEF11F019
:10235000D8900D360E360F2A0EAEB1EF11F0B3EF56
:1023600011F0A8EF11F00D500B5C0E500C58D8A0D6
:10237000BCEF11F0BEEF11F0C2EF11F00D500B5E8B
:102380000E500C5AD8900E320D320F2EB3EF11F0C2
:102390001050D8B4CEEF11F0D0EF11F0D4EF11F00F
:1023A0000B6C0C1ED8B00C2A0BC00BF00CC00CF040
:1023B0001200086E83CF07F0000E956E000E026EBD
:1023C000220E016E000E046E000E036E26EC0AF063
:1023D00008C083FF000E026E210E016E000E046E17
:1023E000010E036E26EC0AF0000E026E210E016E45
:1023F000000E046E000E036E26EC0AF007C083FF89
:10240000020E0818D8B407EF12F009EF12F011EF1E
:1024100012F00804D8A40FEF12F011EF12F015EF2C
:1024200012F040EC14F017EF12F04EEC14F0120022
:10243000000E026E220E016E000E046E000E036E80
:10244000FFEC08F0000E026E210E016E000E046E0D
:10245000000E036EFFEC08F0000E956E40EC14F0D9
:1024600040EC14F040EC14F040EC14F040EC14F0AC
:10247000380ED9EC11F040EC14F040EC14F0380EAA
:10248000D9EC11F040EC14F0380ED9EC11F0380E04
:10249000D9EC11F0060ED9EC11F00C0ED9EC11F0BC
:1024A000010ED9EC11F01200000E066E000E056E42
:1024B00003500410D8B45FEF12F061EF12F089EF0F
:1024C00012F0010E076E69EF12F0D8900336043651
:1024D000072A04AE6EEF12F070EF12F065EF12F003
:1024E000D890053606360350015C04500258D8A037
:1024F0007CEF12F07EEF12F083EF12F00350015EDA
:102500000450025A0580D89004320332072E70EF2F
:1025100012F005C001F006C002F01200000E146EA9
:10252000640E136EBAEF12F013C003F014C004F07F
:1025300011C001F012C002F0BEEC10F001C00BF0AF
:1025400002C00CF0000E0E6E0A0E0D6E81EC11F042
:102550000B50300FB2EC13F013C001F014C002F0B6
:10256000000E046E0A0E036EBEEC10F001C013F0F4
:1025700002C014F014BEC7EF12F0145006E11304A9
:10258000D8B0C5EF12F0C7EF12F094EF12F01200BE
:102590000A6E010ECB24016E026A000E02220AC0EE
:1025A00003F0046A1FEC14F001C00BF002C00CF041
:1025B0000BC001F00CC002F0000E046E190E036E89
:1025C00054EC12F001C00BF002C00CF0FF0E0B1621
:1025D000030E0C160BC008F00CC009F0D89009329D
:1025E0000832D890093208320850BE6E0BC008F08D
:1025F000030E08160838F00BBD121200000E046E10
:10260000000E036E24EF13F0000E056E280E056415
:102610000CEF13F00EEF13F010EF13F022EF13F0A6
:10262000000E066E020E066418EF13F01AEF13F098
:102630001CEF13F01FEF13F0062A12EF13F0052A18
:1026400006EF13F0034A042A0150035C02500458B9
:10265000D8A02DEF13F02FEF13F004EF13F01200BA
:102660001A6E1950D8A437EF13F039EF13F03BEF7F
:1026700013F01AC068F01904D8A441EF13F043EF27
:1026800013F045EF13F01AC067F0020E1918D8A422
:102690004CEF13F04EEF13F050EF13F01AC066F04A
:1026A000030E1918D8A457EF13F059EF13F05BEF8E
:1026B00013F01AC065F01200000E026E020E016ED9
:1026C000000E046E000E036EFFEC08F0000E026EAA
:1026D000030E016E000E046E000E036EFFEC08F098
:1026E000000E026E040E016E000E046E000E036EEC
:1026F000FFEC08F0000E026E050E016E000E046E77
:10270000000E036EFFEC08F0000E956E1200000E36
:102710000E6E000E0D6E9DEF13F00D5009240B6E22
:102720000E500A200C6E0BC0F6FF0CC0F7FF08001D
:10273000F550B2EC13F00D4A0E2A0D5009240B6E21
:102740000E500A200C6E0BC0F6FF0CC0F7FF0800FD
:10275000F5500009D8A4AFEF13F0B1EF13F08DEFEF
:1027600013F01200076E83CF08F0000E956E000E76
:10277000026E220E016E000E046E010E036E26EC38
:102780000AF007C083FF000E026E210E016E000EDC
:10279000046E010E036E26EC0AF0000E026E210E8E
:1027A000016E000E046E000E036E26EC0AF008C0E7
:1027B00083FF4EEC14F012000103030E1C180808EE
:1027C000111F00011F12141F1018180E0703020218
:1027D00008181C0E0303010012141F08001F11002B
:1027E0000203070E18181000000E1111110E000040
:1027F00000000103060C181002060C18100000005F
:10280000000E1111110E0000B80EF66E270EF76EB5
:10281000000EF86E00EE80F010EE50F00900F5CFDB
:10282000EEFFE550E150FAE100EE4BF0200EEE6ACB
:10283000E806FDE1000EF86E000132EF14F00150E1
:102840000302F3CF05F0F4CF06F001500402F35079
:10285000062602500302F350062605C001F006C00A
:1028600002F01200000E946E000E966E5CEC13F0F7
:102870005AEC14F020EC11F055EC10F000EF00F0E1
:10288000000E026E4EEC14F0022A310E02644BEF81
:1028900014F04DEF14F042EF14F01200000E016E30
:1028A000012A180E016457EF14F059EF14F050EF9D
:1028B00014F0120094929494030ECA12CA840C0E5F
:1028C000BD120C0EBA121200070E93160F0E9512BF
:1028D000120063C001F064C002F01200080ED56E51
:0428E000D58E12007F
:020000040020DA
:08000000FFFFFFFFFFFFFFFF00
:020000040030CA
:0E000000FF071F1FFF8385FF0FC00FE00F409B
:00000001FF
